:100000000C94AA060C94D2060C94D2060C94D20638
:100010000C94D2060C94D2060C94D2060C94C516FD
:100020000C94D2060C94D2060C94D2060C94D206F0
:100030000C94D2060C94D2060C946B170C94D20636
:100040000C9421170C94D2060C94D2060C94D20670
:100050000C94D2060C94D2060C94D2060C94D206C0
:100060000C94D2060C94D206C0A05028140A0503A2
:10007000C0B0F868740A0503C0B0E8787C3A05039C
:1000800077EC8814963C61C82C946FF6AFF5A7E91D
:1000900090124C04200820A4704688A584097FFF94
:1000A00037EE28113C69138629346FF6AFF597E5D2
:1000B0004809203210042504620EA5119021FFFE8C
:1000C0001BEE241128011C69138611041284180CDC
:1000D0002C3250016509620EA5119021FFFE1BEE26
:1000E000241128011C69138611041284180C2C7227
:1000F000500165092206753A8846884277FC023C21
:10010000BE5870603CC3403C7D1A0E063CC3B478B8
:10011000DCFC3CF8CC18BD5A7E663CC3000073E39F
:100120004C1D218350C1581F56209560A890B04F98
:10013000A721A49ED489AF094416ABE5FC7F00003B
:10014000C7CEB832C184830AF81A046A06A9091511
:10015000F20D84E57925912B90F56822A7D5FE3F15
:1001600007CEC832BB84E51A806AFCA943153E0D50
:1001700008E57125912B90F56822A455FFFF07CE65
:10018000C832BB84E51A806AFCAA43113E110855A7
:10019000318D524D525B31E56822A7D5FE3F140ADE
:1001A0001D2E173A1F3C041803E004D0081009D094
:1001B00013D027E84FE88FF487E470080FF0A050C1
:1001C000E970B9D079F030400F8016401020172028
:1001D00017902FC82FE45FE24FC2201C1FE0A950E8
:1001E000A950F9F030400F80164010201020271041
:1001F0002010200840044002201C1FE0A950F9F004
:10020000A950F9F0204010800F80164010201018DF
:1002100027044002201C1FE007E0781821847CC2DC
:10022000103E3E4012800A800A7C390454F8A450E3
:10023000B8B081504AA03FC00FC0303C4308867C14
:10024000F81004F8029002A07CA041383E54144AF1
:100250001A3A15020AA407F807C0183E27044A3EB6
:100260008008FE7C40883F1006200A42143D1A0197
:1002700015550FFE07C0183E27044A3E8008FE7C35
:1002800040883F080310061C052A0A250D1D0A8117
:10029000055203FCCFC0A830968E4CC1485F442A5B
:1002A0008040A854B07EA882447CA430B85082A07C
:1002B00055403F8003F30C1571698332FA125422C2
:1002C00002012A157E0D41153E220C250A1D05410D
:1002D00002AA01FC000C00EA072A084917316A113A
:1002E0008021F005412D3E350A220C380A87055140
:1002F00003FF00EC072A084A17316A118021F00138
:1003000041153E0D05150A220C250A1D054102AABC
:1003100001FC1FC07030CA082184907DC883A88565
:10032000588A867981058CF944033804080A10F14B
:100330001F1F03F80C0E10532184BE09C113A11511
:10034000511A9E61A0819F31C022201C50108F083D
:10035000F8F805900AB014D02010A024F0ACB9B47D
:10036000A924604491888E04A0346024503C8F08F6
:10037000F8F825A43A5C2A542004242426649249DF
:10038000D00BA81587E14002581A4812318C42421E
:100390007C3E1CE01FF00FF82FFC6FDCF7DCFFEC5D
:1003A000F73CE18AE472A20A22EC1C5410E21F3EE0
:1003B0000E701FF03FE07FE877EC77DE6FFE79DEAE
:1003C000A30E9C4EA08A6E8854708E10F9F0C7E37D
:1003D000FFFF7FFE3BDC19985DBAFFFFFFFFE427BC
:1003E000C3C340025BDA4992300C23C43C3C1BE09F
:1003F0001410098E38C12C1F1F2078205E3E384211
:10040000333CE08AA88AAF0C4416ABE57E7F07D860
:1004100008287190831CF83404F8041E7C7A421C6E
:100420003CCC5107511530F56822A7D5FE7E07D880
:10043000082819D0629C8834FC78401E3E7A086CEB
:1004400070879085907D6822A455FFFE07D8082804
:1004500019D0629C8834FCF8401E3E7A081C30C8D3
:10046000510E512A30EA6844A7AAFCFC73E34C15EC
:10047000218F1CC1081F08201020103E2442233C5D
:10048000E08AA88AA70C4416ABE5FC7F73E04C1306
:10049000219D1CC70811083F1002107C2710E08E18
:1004A000B889A709C416AA25FFFFC7CEA832F184D0
:1004B0008338F810041004087C0842243CC4510717
:1004C000511530E56822A7D5FE3F07CEC832B98462
:1004D000E3388810FC1040083E0808E47107911DBD
:1004E00090E56823A455FFFF07CEC832B984E338EE
:1004F0008810FC1040083E08082430C451075115EC
:1005000030E56822A7D5FE3F00F80108021005F08B
:100510000A080CCC1E02307EE0F4B9E8C1E841FEC6
:1005200094028E7D7BCF1F00108008400FA01050DA
:10053000333040787E0C2F07179D17837F82402928
:10054000BE71F3DE1F0010C008200BD014382067E6
:10055000528D52134002C0B9FFFF1F0010C0082087
:100560000BD014382067528D521340024129BE71BE
:10057000F3DE07C0083C1302119C21A02020203884
:1005800020041078143022282E3848604798AA9406
:10059000FEFC07C07820819073100B08080838080B
:1005A00040083C101850288838E80C2433C452AA5C
:1005B0007EFE07C008201B1061908388F008400869
:1005C0003E101850288828A8344453AA7EFE07C03D
:1005D00008201B1061908388F00840083E101850D6
:1005E000288838E80C2433C452AA7EFE07C018209D
:1005F00020404880AD008100C15040F020101FE035
:100600003E004180204011200B500810A830F020FF
:1006100080407F8031802E804040912091208E202C
:100620008020802040403F8031802E8040409120BB
:100630009120842080207FC09EFF6C787070FEFF28
:1006400079FF361E0E0E7FFF243C5E7AFF243C7A33
:100650005EFF247E5A7EE7FF00000000003E5B4FF5
:100660005B3E3E6B4F6B3E1C3E7C3E1C183C7E3C12
:10067000181C577D571C1C5E7F5E1C00183C180020
:10068000FFE7C3E7FF0018241800FFE7DBE7FF30B0
:10069000483A060E2629792926407F050507407F1E
:1006A00005253F5A3CE73C5A7F3E1C1C08081C1C91
:1006B0003E7F14227F22145F5F005F5F06097F0187
:1006C0007F006689956A606060606094A2FFA29472
:1006D00008047E040810207E201008082A1C080840
:1006E0001C2A08081E101010100C1E0C1E0C30388E
:1006F0003E3830060E3E0E06000000000000005F8F
:1007000000000007000700147F147F14242A7F2AAA
:10071000122313086462364956205000080703006C
:10072000001C2241000041221C002A1C7F1C2A08B8
:10073000083E08080080703000080808080800001B
:1007400060600020100804023E5149453E00427F8F
:10075000400072494949462141494D331814127FDE
:100760001027454545393C4A49493141211109077E
:100770003649494936464949291E000014000000FF
:1007800040340000000814224114141414140041D1
:1007900022140802015909063E415D594E7C12118E
:1007A000127C7F494949363E414141227F414141C6
:1007B0003E7F494949417F090909013E4141517341
:1007C0007F0808087F00417F41002040413F017FB2
:1007D000081422417F404040407F021C027F7F047A
:1007E00008107F3E4141413E7F090909063E4151C3
:1007F000215E7F09192946264949493203017F01B3
:10080000033F4040403F1F2040201F3F4038403FB3
:10081000631408146303047804036159494D4300C9
:100820007F4141410204081020004141417F040200
:100830000102044040404040000307080020545497
:1008400078407F2844443838444444283844442875
:100850007F385454541800087E090218A4A49C78C8
:100860007F0804047800447D40002040403D007F24
:100870001028440000417F40007C047804787C0804
:100880000404783844444438FC18242418182424D8
:1008900018FC7C08040408485454542404043F44BD
:1008A000243C4040207C1C2040201C3C4030403CEC
:1008B00044281028444C9090907C4464544C44004C
:1008C00008364100000077000000413608000201B0
:1008D0000204023C2623263C1EA1A161123A40409C
:1008E000207A385454555921555579412254547819
:1008F00042215554784020545579400C1E527212B2
:10090000395555555939545454593955545458003A
:1009100000457C410002457D420001457C407D123E
:1009200011127DF0282528F07C54554500205454A0
:100930007C547C0A097F4932494949323A4444444B
:100940003A324A4848303A4141217A3A4240207886
:10095000009DA0A07D3D4242423D3D4040403D3C87
:1009600024FF2424487E4943662B2FFC2F2BFF09AC
:1009700029F620C0887E09032054547941000044A0
:100980007D413048484A32384040227A007A0A0A8B
:10099000727D0D19317D2629292F282629292926FE
:1009A00030484D4020380808080808080808382F43
:1009B00010C8ACBA2F102834FA00007B00000814CD
:1009C0002A142222142A14085500550055AA55AAA3
:1009D00055AAFF55FF55FF000000FF00101010FF43
:1009E00000141414FF001010FF00FF1010F010F09E
:1009F000141414FC001414F700FF0000FF00FF148F
:100A000014F404FC141417101F10101F101F1414DA
:100A1000141F00101010F0000000001F1010101024
:100A20001F10101010F010000000FF101010101018
:100A300010101010FF10000000FF140000FF00FF56
:100A400000001F10170000FC04F4141417101714F2
:100A500014F404F40000FF00F71414141414141414
:100A6000F700F7141414171410101F101F14141487
:100A7000F4141010F010F000001F101F0000001FF1
:100A800014000000FC140000F010F01010FF10FF24
:100A9000141414FF141010101F00000000F010FFB9
:100AA000FFFFFFFFF0F0F0F0F0FFFFFF000000009D
:100AB00000FFFF0F0F0F0F0F3844443844FC4A4A21
:100AC0004A347E02020606027E027E0263554941D6
:100AD000633844443C04407E201E2006027E02020D
:100AE00099A5E7A5991C2A492A1C4C7201724C3021
:100AF0004A4D4D303048784830BC625A463D3E49F8
:100B00004949007E0101017E2A2A2A2A2A44445F9B
:100B1000444440514A444040444A51400000FF018F
:100B200003E080FF000008086B6B0836123624369D
:100B3000060F090F06000018180000001010003002
:100B400040FF0101001F01011E00191D1712003C8A
:100B50003C3C3C0000000000000000002300260098
:100B60002900000000080002010000030407000043
:100B700000000000000000000000240027002A0000
:100B80000E132F5F8E848870C0B8F47A7E3A1D03EE
:100B90000142815018347A7E0600001D81E010C3A6
:100BA0003030661860380CC03004806004C1800C9E
:100BB0006300102200601C00600800F0180198100B
:100BC000030C200604600C0C4018086036103063DB
:100BD0003018C1E00F80C003000000100003104077
:100BE0000110C061018030FE0419011C0200900454
:100BF000004008662008FB2009B920E9292F09399F
:100C000020099B200482200666600324C031A58849
:100C100020FF04407E0200FF0000FF00007E000075
:100C20007E00180000180000180000180F007E1F3A
:100C300080FF1F80FF1F80FF0F00FC1F80FBFF80D5
:100C4000FBFFC0FE7FC0FF1FC0FF1F80FF1FC0FF54
:100C50001FC0FF1FE0FF1CF0FF3870FF3870FF302F
:100C6000387E30183C00000020000060000060006A
:100C700000F00001F00001F80005FB000E77801F76
:100C8000FF801FFF801FFF80EFFF40FBFFE0FC0F96
:100C9000E0FFFFE07FFFE03FFFC01FFF800FFF008E
:100CA00003FE001E0000F20000B20000833000616D
:100CB000F80030FC0019F6000FCA003F83003FD354
:100CC000C03FF8E03FF8E03FFCF01FFFF00FFFF0FF
:100CD00007FFF003FFE003FFE001FF3000FE1C0010
:100CE0007B0600033200037E0001C000410000418A
:100CF000000463100422100622300200208200212A
:100D00004000022C000406000003000001C00000A7
:100D1000FC0000FE0001FF80007F00001C000102BB
:100D20000408102040800102040810200102040879
:100D3000102000000000250028002B0004040404FB
:100D40000404040402020202020203030303030375
:100D50000200BE1E11241FBECFEFD8E0DEBFCDBF04
:100D600013E0A0E0B1E0E6E0F0E402C005900D92EF
:100D7000A63AB107D9F724E0A6EAB3E001C01D9274
:100D8000A132B207E1F716E0CAEAD6E004C0219723
:100D9000FE010E94F61FC93AD107C9F70E948918BF
:100DA0000C9401200C9400000895909112049F3F30
:100DB00059F4909113049F3F39F48EBD00000DB497
:100DC00007FEFDCF8EB5089528E030E040E8E091C1
:100DD0001D04F0911E04508190912004909595235C
:100DE0009083E0911B04F0911C0490911F04582FF4
:100DF000542389F05081952B9083E0911D04F0914C
:100E00001E04908150912004952B9083469521508B
:100E10003109E9F60895508190959523EDCFAF9271
:100E2000BF92CF92DF92EF92FF920F931F93CF93D7
:100E3000DF936C017B018B01040F151FEB015E0139
:100E4000AE18BF08C017D10759F06991D601ED91CE
:100E5000FC910190F081E02DC6010995892B79F76D
:100E6000C501DF91CF911F910F91FF90EF90DF901F
:100E7000CF90BF90AF900895833081F028F48130F7
:100E800099F08230A9F008958730A9F08830C9F030
:100E90008430B1F4809180008F7D03C08091800008
:100EA0008F7780938000089584B58F7784BD0895EF
:100EB00084B58F7DFBCF8091B0008F778093B00099
:100EC00008958091B0008F7DF9CFCF93DF93282FC5
:100ED00030E0F901EE59F44F8491F901E25EF24FEE
:100EE000D491F901E45CF24FC491CC23A1F08111BB
:100EF0000E943C07EC2FF0E0EE0FFF1FE85AF44F82
:100F0000A591B491EC91ED2381E090E009F480E0AB
:100F1000DF91CF91089580E090E0FACF1F93CF93B7
:100F2000DF93282F30E0F901EE59F44F8491F90155
:100F3000E25EF24FD491F901E45CF24FC491CC230C
:100F4000A9F0162F81110E943C07EC2FF0E0EE0F64
:100F5000FF1FEE5CF24FA591B4918FB7F894EC911E
:100F6000111108C0D095DE23DC938FBFDF91CF91A4
:100F70001F910895DE2BF8CFCF93C82F60E08091AA
:100F800014040E948E078091160418161CF460E069
:100F90000E948E078C2F0E94D50680911604181689
:100FA00024F461E0CF910C948E07CF910895CF93F4
:100FB000C82F87FDCFE7C093170481E20E94BC07CA
:100FC0008C2F80680E94BC0780E2CF910C94BC07F4
:100FD0009091040189130BC0E0E5FDE0E4919FEFDF
:100FE00090930401E13049F028F0E23061F060E0D4
:100FF0000C948E0710926E00FACF90916F009D7F37
:1010000090936F00F4CF909170009D7F909370004B
:1010100091E09093B0009091B100987F946090938C
:10102000B1001092B300E3CFCF93DF9390E0FC01C7
:10103000E25EF24F2491845C924FFC0184918823FC
:10104000D1F090E0880F991FFC01EA58F44FA59168
:10105000B491FC01EE5CF24FC591D49161110EC0C8
:101060009FB7F8948C91E22FE0958E238C93288182
:10107000E223E8839FBFDF91CF9108958FB7F89463
:10108000EC91E22BEC938FBFF6CF4F925F926F9271
:101090007F928F929F92AF92BF92CF92DF92EF9208
:1010A000FF920F931F93CF938C014A015B018091B4
:1010B0000401833099F08F3F09F477C0CF911F91DD
:1010C0000F91FF90EF90DF90CF90BF90AF909F90E7
:1010D0008F907F906F905F904F900895E0E5FDE0D6
:1010E000C491C7FDEBCF61E083E00E941408CC23DC
:1010F00019F0C23009F0CAC02801712C612C68E4D3
:1011000078EE81E090E0A30198010E94931F6901AD
:101110007A0181E0C81AD108E108F108CC2309F46A
:1011200006C1C23009F0B0C08FEFC816D104E10487
:10113000F10409F00CF405C164E274EF80E090E082
:10114000A30198010E94931F69017A0181E0C81AE6
:10115000D108E108F10895E08FEFC816D104E10449
:10116000F10409F008F4EEC062E17AE780E090E073
:10117000A30192010E94931F69017A0181E0C81ABC
:10118000D108E108F108C11101C194E085B5887F5B
:10119000892B85BD2FEF3FEFA90181149104A10494
:1011A000B10409F4E4C0C0E092C083E0809304017C
:1011B000E0E5FDE0C491CF3F09F480CFC13021F1DB
:1011C00050F0C23009F43EC0C7FD78CF61E083E043
:1011D0000E9414088ECF14BC15BC84B5826084BDF7
:1011E00085B5816085BDEFE3FDE0E491F0E0EE0FB1
:1011F000FF1FEE5CF24F85919491E1E2FDE0E491F6
:10120000E093EA03C0E06FCF10928000109281005B
:10121000809181008860809381008091810081604D
:1012200080938100EFE3FDE0E491F0E0EE0FFF1F1B
:10123000EE5CF24F85919491E1E2FDE0E491E09360
:10124000E90351CF1092B0001092B1008091B0002C
:1012500082608093B0008091B10081608093B10082
:10126000EFE3FDE0E491F0E0EE0FFF1FEE5CF24FE4
:10127000859194919093E8038093E703E1E2FDE088
:10128000E491E093E6032FCF94E066CF980150E01D
:1012900040E060E072E18AE790E00E94931F6901FC
:1012A0007A0181E0C81AD108E108F108C13009F0DB
:1012B0004FC080918100887F8160809381002FEFF3
:1012C0003FEFA90181149104A104B10471F0D80188
:1012D000AA0FBB1FA50194010E94B21F28EE33E0A4
:1012E00040E050E00E94C51F3CC0D0928900C092EF
:1012F00088002093EF033093F0034093F103509361
:10130000F20380916F00826080936F00D7CEC0920D
:10131000B3002093EB033093EC034093ED03509321
:10132000EE0380917000826080937000C7CE93E0DE
:101330008FEFC816D104E104F10411F00CF014CFC2
:1013400025CF94E08091B100887F892B8093B100F4
:101350002FEF3FEFA90181149104A104B10409F01A
:10136000B6CFC13011F2C23091F2C111A7CEC7BCC5
:101370002093F3033093F4034093F5035093F60363
:1013800080916E00826080936E0098CE96E0DACFF6
:101390003FB7F8948091AD039091AE03A091AF0355
:1013A000B091B00326B5A89B05C02F3F19F0019658
:1013B000A11DB11D3FBFBA2FA92F982F8827BC01AF
:1013C000CD01620F711D811D911D42E0660F771FD7
:1013D000881F991F4A95D1F708958F929F92AF92D7
:1013E000BF92CF92DF92EF92FF924B015C010E947D
:1013F000C8096B017C010E94C8096C197D098E091E
:101400009F09683E734081059105A8F321E0821A87
:101410009108A108B10888EEC80E83E0D81EE11C2F
:10142000F11C81149104A104B10429F7FF90EF90FD
:10143000DF90CF90BF90AF909F908F900895CF9303
:1014400080911504181674F460E00E948E0764EF12
:1014500071E080E090E00E94ED0961E08091150468
:101460000E948E07C0911804C83008F0C7E0C093EE
:10147000180481E20E94BC078C2F80610E94BC0787
:1014800080E20E94BC07809117040E94D70780E287
:101490000E94BC078CE0CF910C94BC07EF92FF92A6
:1014A0000F931F93CF93DF9390911904992339F0F1
:1014B00080911A048F5F8917B0F580931A0405E0B4
:1014C00011E0C0E08C2F80640E94BC0780E80E947D
:1014D000BC0761E0809114040E948E07809116047D
:1014E00018161CF460E00E948E077801D4E5F7011D
:1014F00081917F010E94D506D150C9F780911604D1
:1015000018161CF461E00E948E07CF5F0C5A1F4F23
:10151000C630C1F680E4DF91CF911F910F91FF900B
:10152000EF900C94BC0710921A040E941F0AC7CFB8
:101530002FB7F8946091A9037091AA038091AB032F
:101540009091AC032FBF0895FC01D90177FD3CC0F9
:101550008085918568177907BCF557FD35C0828570
:1015600093854817590784F58689823071F1833055
:10157000C9F1813031F48FE290E0861B970BBA01FC
:10158000AC016435710500F540335105E8F4CA013A
:1015900023E0959587952A95E1F724E5289FF001AA
:1015A000299FF00D1124E60FF71FEB5FFE4F3081EE
:1015B0004770552781E090E001C0880F4A95EAF70F
:1015C000AB2BB9F0832B8083089583E590E09C01D9
:1015D000261B370BB9018FE290E09C01241B350BD1
:1015E000A901CFCF83E590E0841B950BAB01BC0133
:1015F000C8CF80958323E7CF0895FC016370668B85
:101600008481958126813781613039F0633029F0FA
:101610009187808733872287089531872087938732
:10162000828708952F923F924F925F926F927F929E
:101630008F929F92AF92BF92CF92DF92EF92FF92E2
:101640000F931F93CF93DF93CDB7DEB76A970FB693
:10165000F894DEBF0FBECDBF9A8F898F7A836983DE
:101660004A01D22E18870F833701BC2CDC01599612
:101670002D913C915A972115310509F015C1189605
:101680008D919C911997681779070CF0D7C11A961C
:101690008D919C91481759070CF0D0C14C2C512CBE
:1016A000B6E0CB9E600D711D11247C876B871616EA
:1016B00017060CF0C3C1EA2DF0E0FA87E98793E042
:1016C000EE0FFF1F9A95E1F7F88BEF87CF01840F9C
:1016D000951F181619060CF0B1C1A98DBA8D589630
:1016E0008C91811104C0BFEABD1508F4D394A98D73
:1016F000BA8DED91FC9111970284F385E02DCD0117
:101700000995B5E0DB9EC0011124E981FA81FC83D3
:10171000EB83312C212C9C01285A394F388F2F8B89
:101720004A2D50E05E8B4D8BEF89F88DE20DF31D55
:1017300044919E828D82D12CC12C69817A81620D67
:10174000731D7A8B698B842F90E09C8B8B8BE98D3A
:10175000FA8DA081B18140FF82C0F1E0BF126FC05D
:10176000AF126DC01C96ED91FC912F813885A401BC
:101770004C0D5D1D69897A89898D9A8D0995EB8952
:10178000FC89F595E7954E2F5FEFC51AD50A6D8157
:101790007E818D899E89680F791F7E836D8398E095
:1017A000C916D10481F6AFEF2A1A3A0AEB81FC81FF
:1017B000E40DF51DFC83EB83F5E02F16310409F0F1
:1017C000B3CF2F81388526153705B9F0A98DBA8D8D
:1017D000ED91FC91B1E0BB1257C0AB1255C06981CD
:1017E0007A816B5F7F4F0088F189E02D830128E0CB
:1017F00030E0A401898D9A8D0995A98DBA8DED915E
:10180000FC9111970688F789E02DCD016A960FB6F5
:10181000F894DEBF0FBECDBFDF91CF911F910F9126
:10182000FF90EF90DF90CF90BF90AF909F908F9000
:101830007F906F905F904F903F902F9009941E96ED
:10184000ED91FC91EF80F88409851A8592014D8114
:101850005E816B817C81898D9A8D099590CF2F81D6
:1018600038852615370509F48ACF31E0B31207C051
:10187000A31205C01C96ED91FC91930178CF1E96A2
:10188000ED91FC917301E0CF6B857C85641975093E
:101890000684F785E02D73010F8518899201A40154
:1018A000898D9A8D0995A9CFF90134969491329733
:1018B00045915491D91AB7E0DB9E400D511D11247A
:1018C000F901259134913C8B2B8BFA0125903490B2
:1018D000FA013296749031963491398B3296649035
:1018E0003196449041E04C1518F04A1508F07FC03D
:1018F000662D062C000C770B7C836B83842D042CC7
:10190000000C990B9E838D83A98DBA8DED91FC916E
:1019100011970284F385E02DCD010995512CD12C2E
:10192000C12CEA2DF0E0FA87E9872B2D30E03C87C7
:101930002B87A401440D511D47FC5A95588F4F8B9E
:1019400069817A81660D711D67FC7A957E876D8746
:101950007989C71608F051CF2C2D30E04D815E817A
:10196000420F531FA985BA854A9FC0014B9F900D16
:101970005A9F900D1124FC01E80DF91DF88BEF879B
:10198000852D612C4F89588D420F531F5E8B4D8BD7
:10199000671408F050C044244394480E877041F403
:1019A000C1010196EB89FC89E20DF31DD4901C0165
:1019B000D7FE19C0A98DBA8DED91FC91662D70E00E
:1019C000B1E0BB1219C0AB1217C02D853E85620F66
:1019D000731F0484F585E02D2F8138854D895E893C
:1019E000898D9A8D0995DD0C6394842DD1CF1E824B
:1019F0001D821C821B8288CF4B815C81640F751F06
:101A0000AB85BC856A9FC0016B9F900D7A9F900D3E
:101A1000112469817A81680F791F0684F785E02D8A
:101A2000EF80F88409851A859D014F855889898D35
:101A30009A8D0995D8CF570CC3948ACF6A960FB662
:101A4000F894DEBF0FBECDBFDF91CF911F910F91F4
:101A5000FF90EF90DF90CF90BF90AF909F908F90CE
:101A60007F906F905F904F903F902F9008958F924E
:101A70009F92AF92CF92EF92FF920F931F93CF93CB
:101A8000DF93EC01262F898D9A8D009709F051C0C4
:101A90006A30D1F41D861C868D8948E0849F9001B0
:101AA00011248E859F85820F931F9F878E8781E0EB
:101AB00090E0DF91CF911F910F91FF90EF90CF9029
:101AC000AF909F908F9008956D3089F3CC88AD884A
:101AD0008F898823C1F08C859D8536E0C39E800D5B
:101AE000911D1124488559854817590764F44E857E
:101AF0005F851D861C8638E0A39EC0011124840FDB
:101B0000951F9F878E87EA88FB88088919894E85EB
:101B10005F856C857D85CE010E94120B2C898C859A
:101B20009D8546E0249F800D911D11249D878C8703
:101B3000BECF6A3069F41D861C86FC013696E4919E
:101B40002D898E859F85E29F800D911D1124ADCF3B
:101B50006D3009F4ACCFFC0134963491631708F46E
:101B6000A6CF3196E491E61708F4A1CFFC01329696
:101B700085909490462F431B342F47E0349F800C70
:101B8000911C1124F401329634913196E49133235F
:101B9000A9F1EE2399F1CC88F4013596E491AD8852
:101BA0004F89442301F10E2E000CFF0BE30FF11DB2
:101BB000CE9EA001CF9E500D11246C857D85460FD1
:101BC000571F68857985641775076CF44E855F85A6
:101BD0001D861C86FC013696E491AE9E400D511D7B
:101BE00011245F874E87EA88FB88088919894E850A
:101BF0005F856C857D85CE010E94120BF4013496C1
:101C0000E4912C898C859D85E29F800D911D112486
:101C10008DCF6F927F928F929F92AF92BF92CF9211
:101C2000DF92EF92FF920F931F93CF93DF93EC011C
:101C30006B015A0139014801E881F9810284F38579
:101C4000E02D0995E881F9810288F389E02D87016B
:101C50009301A501B601CE010995A501480D591DB5
:101C600041505109E881F9810288F389E02D9301FF
:101C7000B601CE010995E881F9810088F189E02D4E
:101C80009401A501B601CE010995C60CD71CB60179
:101C900061507109E881F9810088F189E02D940192
:101CA000A501CE010995E881F9810688F789E02D23
:101CB000CE01DF91CF911F910F91FF90EF90DF90B8
:101CC000CF90BF90AF909F908F907F906F9009942E
:101CD0006F927F928F929F92AF92BF92CF92DF923C
:101CE000EF92FF920F931F93CF93DF935C01EB0171
:101CF0006A01490138018701DC01ED91FC9162170D
:101D0000730719F5641675062CF0962D872D3A0188
:101D1000C92ED82E9601261937092F5F3F4F048C04
:101D2000F58DE02DA301BE01C5010995DF91CF918D
:101D30001F910F91FF90EF90DF90CF90BF90AF90E9
:101D40009F908F907F906F9008954615570591F45E
:101D50002617370724F0892D4B01C22FD82F9E015B
:101D6000281939092F5F3F4F068CF78DE02DA6010A
:101D7000B401DACF0284F385E02D0995D501ED9108
:101D8000FC910488F589E02D83019401A601BE0130
:101D9000C5010995D501ED91FC910688F789E02DE3
:101DA000C501DF91CF911F910F91FF90EF90DF90D0
:101DB000CF90BF90AF909F908F907F906F9009943D
:101DC000EF92FF920F931F93DC011A960D911C91D5
:101DD0001B9718962D913C911997ED91FC9100A0BD
:101DE000F1A1E02D7B0150E040E070E060E009955A
:101DF0001F910F91FF90EF9008954F925F926F9215
:101E00007F928F929F92AF92BF92CF92DF92EF928A
:101E1000FF920F931F93CF93DF936C012B015A0115
:101E200039014801DC01ED91FC910284F385E02D3C
:101E30000995E201640C751CD601ED91FC91C61563
:101E4000D7055CF40088F189E02D87019401A50194
:101E5000BE01C60109952196EFCF0688F789E02DCE
:101E6000C601DF91CF911F910F91FF90EF90DF900E
:101E7000CF90BF90AF909F908F907F906F905F902A
:101E80004F9009948F929F92AF92BF92CF92DF9220
:101E9000EF92FF920F931F93CF93DF93EC015B01BF
:101EA0004A016901E881F9810284F385E02D0995F1
:101EB00095012C0D3D1D21503109E881F9810488DF
:101EC000F589E02D78018401A401B501CE010995C1
:101ED000E881F9810688F789E02DCE01DF91CF9165
:101EE0001F910F91FF90EF90DF90CF90BF90AF9038
:101EF0009F908F9009948F929F92AF92BF92CF92B2
:101F0000DF92EF92FF920F931F93CF93DF93EC0139
:101F10005B014A0169017801E881F9810284F38556
:101F2000E02D0995C80CD91C860101501109E881E2
:101F3000F9810488F589E02D9501A401B501CE0150
:101F40000995E881F9810688F789E02DCE01DF91B6
:101F5000CF911F910F91FF90EF90DF90CF90BF90A6
:101F6000AF909F908F900994EF92FF920F931F93E1
:101F7000DC01ED91FC9100A0F1A1E02D09951F91EC
:101F80000F91FF90EF9008950F931F93DC01ED9157
:101F9000FC91068CF78DE02D09951F910F91089506
:101FA0000F931F93DC01ED91FC91048CF58DE02DD6
:101FB00009951F910F910895DC01ED91FC9100842A
:101FC000F185E02D09943F924F925F926F927F923C
:101FD0008F929F92AF92BF92CF92DF92EF92FF9239
:101FE0000F931F93CF93DF935C017B014A0169013B
:101FF000390187E0680E711C93E0759467949A9597
:10200000E1F72B01400E511E10E000E0312CD0E032
:10201000C0E0CE0187709927330C892B59F4FE015B
:1020200083E0F595E7958A95E1F7E00FF11FE80D5C
:10203000F91D349037FE0AC021E030E0A701B50158
:102040006C0F7D1F87EF93E00E94DC0F2196CC166A
:10205000DD06F9F68FEFE81AF80A060D171DE414ED
:10206000F504A9F6DF91CF911F910F91FF90EF90AA
:10207000DF90CF90BF90AF909F908F907F906F90A8
:102080005F904F903F9008952F923F924F925F92B2
:102090006F927F928F929F92AF92BF92CF92DF9278
:1020A000EF92FF920F931F93CF93DF9300D000D056
:1020B00000D0CDB7DEB73C016A013E832D83FC82A0
:1020C000EB825801A41AB50AB7FE03C0B194A194DB
:1020D000B1088D809E80861A970A97FE03C091945E
:1020E000819491088A149B045CF0902F812F0D81BC
:1020F0001E819D838E839C2D8D2D6B01692F782FE2
:102100000C151D055CF09D818E817E836D83692F8A
:10211000782F902F812F8601C92ED82E1601201AD4
:10212000310A2B012D813E81421A530A57FE03C00A
:10213000519441945108710137FE03C03FEFE31AF7
:10214000F30AF594E7948D819E81861797075CF5D5
:10215000A1E0B0E0BA83A983C016D1064CF1D30147
:10216000ED91FC910484F585E02D2B813C81A80143
:102170006D817E818A149B041CF04D815E81B801C3
:10218000C3010995E418F508F7FE0AC02D813E81C8
:1021900089819A81280F391F3E832D83E20CF31C1D
:1021A0000F5F1F4FD9CF2FEF3FEF3A832983D4CF53
:1021B00026960FB6F894DEBF0FBECDBFDF91CF914C
:1021C0001F910F91FF90EF90DF90CF90BF90AF9055
:1021D0009F908F907F906F905F904F903F902F9047
:1021E0000895089590E080E008950F931F93CF9392
:1021F000DF93D82FC62F2091CE03213081F4109287
:10220000CE03809101019091A603913009F4CFC4CF
:1022100092E0980F923408F0C4C490930101809129
:10222000C503811158C08091C60381110CC06C2F69
:1022300070E006E010E028E030E042E556E08D2F47
:1022400090E00E94E30F8091C603813071F46C2FFF
:1022500070E06F5F7F4F05E010E028E030E04DE474
:1022600056E08D2F90E00E94E30F8091C6038230EC
:1022700071F46C2F70E06F5F7F4F05E010E028E095
:1022800030E048E456E08D2F90E00E94E30F80910B
:10229000C603833071F408E010E028E030E040E449
:1022A00056E08C2F8250990BBC018D2F90E00E943C
:1022B000E30F8091C603843071F408E010E028E059
:1022C00030E048E356E08C2F8250990BBC018D2FF3
:1022D00090E00E94E30F8091C503813009F058C05F
:1022E0008091C60381110CC06C2F70E008E010E0F3
:1022F0002BE030E048E256E08D2F90E00E94E30FA3
:102300008091C603813071F40AE010E02BE030E0E8
:1023100044E156E08C2F8250990BBC018D2F90E048
:102320000E94E30F8091C603823071F40AE010E04E
:102330002CE030E040E056E08C2F8250990BBC013D
:102340008D2F90E00E94E30F8091C603833071F4DB
:102350000AE010E02BE030E044E156E08C2F8250A0
:10236000990BBC018D2F90E00E94E30F8091C60372
:10237000843071F40AE010E02CE030E04CEE55E0DF
:102380008C2F8250990BBC018D2F90E00E94E30F9F
:102390008091C503823009F058C08091C603811135
:1023A0000CC06C2F70E00FE010E02FE030E04EEC3E
:1023B00055E08D2F90E00E94E30F8091C60381309D
:1023C00071F46C2F70E06F5F7F4F0EE010E02FE034
:1023D00030E042EB55E08D2F90E00E94E30F8091BA
:1023E000C603823071F400E110E02FE030E042E9F2
:1023F00055E08C2F8150990BBC018D2F90E00E94ED
:10240000E30F8091C603833071F46C2F70E06F5F2F
:102410007F4F0EE010E02FE030E042EB55E08D2FD3
:1024200090E00E94E30F8091C603843071F400E1D4
:1024300010E02FE030E042E755E08C2F8150990BFF
:10244000BC018D2F90E00E94E30F8091C503833083
:1024500009F050C08091C60381110CC06C2F70E050
:102460000CE010E020E130E04AE555E08D2F90E0EF
:102470000E94E30F8091C603813061F46C2F70E0FD
:102480000BE010E020E130E044E455E08D2F90E0D7
:102490000E94E30F8091C603823061F46C2F70E0DC
:1024A0000FE010E020E130E046E255E08D2F90E0B3
:1024B0000E94E30F8091C603833061F46C2F70E0BB
:1024C0000BE010E020E130E044E455E08D2F90E097
:1024D0000E94E30F8091C603843061F46C2F70E09A
:1024E0000FE010E020E130E048E055E08D2F90E073
:1024F0000E94E30F8091C503843009F050C08091A1
:10250000C60381110CC06C2F70E000E110E020E1E7
:1025100030E048EE54E08D2F90E00E94E30F809170
:10252000C603813061F46C2F70E00FE010E020E111
:1025300030E04AEC54E08D2F90E00E94E30F809150
:10254000C603823061F46C2F70E000E110E020E1FE
:1025500030E04AEA54E08D2F90E00E94E30F809132
:10256000C603833061F46C2F70E00FE010E020E1CF
:1025700030E04CE854E08D2F90E00E94E30F809112
:10258000C603843061F46C2F70E000E110E020E1BC
:1025900030E04CE654E08D2F90E00E94E30F8091F4
:1025A000C503853009F050C08091C60381110CC06D
:1025B0006C2F70E000E110E02FE030E04CE454E0DC
:1025C0008D2F90E00E94E30F8091C603813061F46B
:1025D0006C2F70E00FE010E020E130E04EE254E0BC
:1025E0008D2F90E00E94E30F8091C603823061F44A
:1025F0006C2F70E000E110E020E130E04EE054E0AC
:102600008D2F90E00E94E30F8091C603833061F428
:102610006C2F70E00FE010E020E130E04EE254E07B
:102620008D2F90E00E94E30F8091C603843061F407
:102630006C2F70E000E110E020E130E04EEE53E05E
:102640008D2F90E00E94E30F8091C503863009F042
:1026500050C08091C60381110CC06C2F70E000E166
:1026600010E020E130E04EEC53E08D2F90E00E942E
:10267000E30F8091C603813061F46C2F70E00FE0AE
:1026800010E02FE030E040EB53E08D2F90E00E940F
:10269000E30F8091C603823061F46C2F70E000E19B
:1026A00010E020E130E04EEC53E08D2F90E00E94EE
:1026B000E30F8091C603833061F46C2F70E00FE06C
:1026C00010E02FE030E042E953E08D2F90E00E94CF
:1026D000E30F8091C603843061F46C2F70E000E159
:1026E00010E020E130E04EEC53E08D2F90E00E94AE
:1026F000E30F8091C503873009F050C08091C60375
:1027000081110CC06C2F70E000E110E020E130E09E
:1027100042E753E08D2F90E00E94E30F8091C603C3
:10272000813061F46C2F70E000E110E02EE030E0C9
:1027300042E553E08D2F90E00E94E30F8091C603A5
:10274000823061F46C2F70E000E110E020E130E0B5
:1027500042E353E08D2F90E00E94E30F8091C60387
:10276000833061F46C2F70E000E110E02EE030E087
:1027700042E553E08D2F90E00E94E30F8091C60365
:10278000843061F46C2F70E000E110E020E130E073
:1027900042E153E08D2F90E00E94E30F8091C5034A
:1027A000883009F050C08091C60381110CC06C2F95
:1027B00070E000E110E020E130E042EF52E08D2FC8
:1027C00090E00E94E30F8091C603813061F46C2F8A
:1027D00070E00FE010E020E130E044ED52E08D2F9A
:1027E00090E00E94E30F8091C603823061F46C2F69
:1027F00070E000E110E020E130E044EB52E08D2F8A
:1028000090E00E94E30F8091C603833061F46C2F47
:1028100070E00FE010E020E130E044ED52E08D2F59
:1028200090E00E94E30F8091C603843061F46C2F26
:1028300070E000E110E020E130E044E952E08D2F4B
:1028400090E00E94E30F8091C503893009F050C0E9
:102850008091C60381110CC06C2F70E000E110E084
:1028600020E130E044E752E08D2F90E00E94E30F3A
:102870008091C603813061F46C2F70E00EE010E0AF
:1028800020E130E048E552E08D2F90E00E94E30F18
:102890008091C603823061F46C2F70E000E110E09B
:1028A0002FE030E048E352E08D2F90E00E94E30FEC
:1028B0008091C603833061F46C2F70E00EE010E06D
:1028C00020E130E048E552E08D2F90E00E94E30FD8
:1028D0008091C603843061F46C2F70E000E110E059
:1028E0002FE030E048E152E08D2F90E00E94E30FAE
:1028F0008091C5038A3009F050C08091C6038111D0
:102900000CC06C2F70E00EE010E02FE030E04CEFD8
:1029100051E08D2F90E00E94E30F8091C60381303B
:1029200061F46C2F70E00FE010E02FE030E04EED2E
:1029300051E08D2F90E00E94E30F8091C60382301A
:1029400061F46C2F70E000E110E02FE030E04EEB1E
:1029500051E08D2F90E00E94E30F8091C6038330F9
:1029600061F46C2F70E00FE010E02FE030E04EEDEE
:1029700051E08D2F90E00E94E30F8091C6038430D8
:1029800061F46C2F70E000E110E02FE030E04EE9E0
:1029900051E08D2F90E00E94E30F8091C5038B30B2
:1029A00009F050C08091C60381110CC06C2F70E0FB
:1029B00000E110E020E130E04EE751E08D2F90E0A3
:1029C0000E94E30F8091C603813061F46C2F70E0A8
:1029D0000FE010E020E130E040E651E08D2F90E084
:1029E0000E94E30F8091C603823061F46C2F70E087
:1029F00001E110E020E130E04EE351E08D2F90E066
:102A00000E94E30F8091C603833061F46C2F70E065
:102A10000FE010E020E130E040E651E08D2F90E043
:102A20000E94E30F8091C603843061F46C2F70E044
:102A300001E110E020E130E04CE151E08D2F90E029
:102A40000E94E30F8091C5038C3009F050C0809143
:102A5000C60381110CC06C2F70E007E010E028E085
:102A600030E045E151E08D2F90E00E94E30F80912E
:102A7000C603813061F46C2F70E007E010E026E0BF
:102A800030E04EE051E08D2F90E00E94E30F809106
:102A9000C603823061F46C2F70E008E010E028E09B
:102AA00030E046E051E08D2F90E00E94E30F8091EE
:102AB000C603833061F46C2F70E007E010E026E07D
:102AC00030E04EE051E08D2F90E00E94E30F8091C6
:102AD000C603843061F46C2F70E008E010E028E059
:102AE00030E04EEF50E08D2F90E00E94E30F809198
:102AF000C5038D3009F050C08091C60381110CC010
:102B00006C2F70E000E110E020E130E04EED50E08D
:102B10008D2F90E00E94E30F8091C603813061F415
:102B20006C2F70E00FE010E020E130E040EC50E06E
:102B30008D2F90E00E94E30F8091C603823061F4F4
:102B40006C2F70E000E110E020E130E040EA50E05E
:102B50008D2F90E00E94E30F8091C603833061F4D3
:102B60006C2F70E00FE010E020E130E040EC50E02E
:102B70008D2F90E00E94E30F8091C603843061F4B2
:102B80006C2F70E000E110E020E130E040E850E020
:102B90008D2F90E00E94E30FDF91CF911F910F9155
:102BA00008958F5F809301012093A60338CB825054
:102BB00019F08093010133CB909301011092A60389
:102BC0002ECB0F931F938091D003813031F0823050
:102BD00009F444C01F910F9108958091CE03811193
:102BE0000CC008E010E028E030E048E85BE06EE16F
:102BF00070E089E190E00E94E30F8091CE03813084
:102C000061F408E010E028E030E048E750E06EE1D1
:102C100070E089E190E00E94E30F8091CE03823062
:102C200061F408E010E028E030E040E750E06EE1B9
:102C300070E089E190E00E94E30F8091CE0308E00C
:102C400010E028E030E048E650E0833019F66EE10D
:102C500070E089E190E00E94E30FBCCF8091CE0349
:102C600081110CC008E010E028E030E040E85BE0B3
:102C70006EE170E089E190E00E94E30F8091CE0365
:102C8000813061F407E010E027E030E040E85BE0ED
:102C90006EE170E089E190E00E94E30F8091CE0345
:102CA000823009F097CF04E010E025E030E040E802
:102CB0005BE0CDCFFC0101900020E9F73197AF0137
:102CC000481B590BBC0187EF93E00C940F07CF9280
:102CD000DF92EF92FF920F931F93CF93DF93CDB7C5
:102CE000DEB7A1970FB6F894DEBF0FBECDBF282F79
:102CF00030E050E040E019A28E010F5D1F4F8AE0E6
:102D0000C82ED12CE12CF12CCA01B901A7019601E2
:102D10000E94C51F605DF80162938F012115310586
:102D20004105510589F790E080E0309761F001900E
:102D30000020E9F73197AF01401B510BB80187EF35
:102D400093E00E940F07A1960FB6F894DEBF0FBE66
:102D5000CDBFDF91CF911F910F91FF90EF90DF904A
:102D6000CF900895E5E0F1E088EF91E0DF019C016C
:102D70001D9221503040E1F7E7EFF3E0158614860D
:102D80001786168608950E94FC1F1F920F920FB699
:102D90000F9211242F933F934F935F936F937F93E1
:102DA0008F939F93AF93BF93EF93FF938091EB0328
:102DB0009091EC03A091ED03B091EE03892B8A2B47
:102DC0008B2BD1F19091E603E091E703F091E803BA
:102DD0008081892780838091EB039091EC03A091FF
:102DE000ED03B091EE03181619061A061B069CF4A3
:102DF0008091EB039091EC03A091ED03B091EE0371
:102E00000197A109B1098093EB039093EC03A09380
:102E1000ED03B093EE03FF91EF91BF91AF919F91BE
:102E20008F917F916F915F914F913F912F910F9073
:102E30000FBE0F901F901895809104010E94E80723
:102E4000EACF1F920F920FB60F9211242F933F9348
:102E50008F939F93AF93BF938091A9039091AA03FF
:102E6000A091AB03B091AC033091A80323E0230FF2
:102E70002D3758F50196A11DB11D2093A80380930D
:102E8000A9039093AA03A093AB03B093AC038091E2
:102E9000AD039091AE03A091AF03B091B003019642
:102EA000A11DB11D8093AD039093AE03A093AF031A
:102EB000B093B003BF91AF919F918F913F912F91AC
:102EC0000F900FBE0F901F90189526E8230F0296C3
:102ED000A11DB11DD2CF1F920F920FB60F921124D8
:102EE0002F933F934F935F936F937F938F939F9312
:102EF000AF93BF93EF93FF93E091D703E73070F464
:102F0000F0E0EB57F84E0C94F61F8C17A817B71784
:102F1000DC17FA1736185D181092A7038091D703B3
:102F2000882329F08091A7038F5F8093A703FF91E7
:102F3000EF91BF91AF919F918F917F916F915F9131
:102F40004F913F912F910F900FBE0F901F901895AA
:102F50008091A7038111E2CF44E650E060E070E089
:102F600088EB91E00E9445081092D703D7CF80915B
:102F7000A703811108C040E050E0BA0188EB91E05E
:102F80000E944508CBCF823021F483E00E94E807FD
:102F9000C5CF843021F483E00E94E807ECCF86306F
:102FA000A1F38830C1F38A3009F0B8CF83E00E94E2
:102FB000E8071092A703D8CF8091A703811106C01C
:102FC00040E050E0BA0180E991E0DACF8130E9F2E7
:102FD000823021F483E00E94E807F2CF8330A9F227
:102FE0008430C1F3853089F28630A1F3873009F04F
:102FF00095CFDCCF8091A703882309F4BCCF813023
:1030000021F2823041F2833009F4BFCF843049F499
:1030100083E00E94E80740E050E0BA0184EF91E0CD
:10302000AFCF863009F4B1CF873049F483E00E94F6
:10303000E80740E050E0BA0180E392E0A1CF883099
:1030400009F4A3CF893091F38A3009F49ECF8B30F5
:1030500049F483E00E94E80740E050E0BA018CE6C2
:1030600092E08ECF8C3009F059CFA0CF8091A7038A
:10307000882309F4A5CF813009F487CF823009F481
:10308000A9CF833009F481CF843009F4A3CF8530F0
:1030900009F47BCF863009F49DCF873009F475CFD2
:1030A000883009F497CF893009F46FCF8A3009F45A
:1030B00091CF8B3009F032CF79CF8091A703811166
:1030C00006C040E050E0BA0188EC90E059CF84306F
:1030D00049F483E00E94E80740E050E0BA0184EB45
:1030E00090E04ECF863049F483E00E94E80740E04C
:1030F00050E0BA0180EA90E043CF883009F053CF26
:1031000083E00E94E80740E050E0BA018CE890E0DC
:1031100037CF789484B5826084BD84B5816084BDE6
:1031200085B5826085BD85B5816085BD80916E0065
:10313000816080936E001092810080918100826096
:1031400080938100809181008160809381008091D3
:1031500080008160809380008091B10084608093C2
:10316000B1008091B00081608093B00080917A00BE
:10317000846080937A0080917A00826080937A00E4
:1031800080917A00816080937A0080917A008068D3
:1031900080937A001092C10080E480937C0080913B
:1031A0007A00806480937A0080917A0086FDFCCF5B
:1031B0008091780060917900762F682F072E000C9F
:1031C000880B990B611571058105910511F00E941D
:1031D0008A1F10927A008FEA87BD80916E0082600C
:1031E00080936E00809112048F3FF1F4909113044C
:1031F0009F3FD1F4CFB7F8948091B103882309F4AD
:10320000D8C28091B1038F5F8093B103CFBF8CB5DB
:103210008C7F8CBD8DB58E7F8DBD8CB5837F8CBD35
:103220008CB58F7D8CBD3CC061E00E94140861E0CC
:10323000809113040E94140880911304082E000C3E
:10324000990BFC01E45CF24FE491F0E0EE0FFF1FFC
:10325000EE5CF24F2591349130931E0420931D04AF
:10326000FC01E25EF24FE491E093200480911204AD
:10327000082E000C990BFC01E45CF24FE491F0E0A5
:10328000EE0FFF1FEE5CF24F2591349130931C043A
:1032900020931B04FC01E25EF24FE491E0931F04D3
:1032A00061E0809114040E9414088091150418169E
:1032B0001CF461E00E9414088091160418161CF496
:1032C00061E00E94140884E08093180488E28093EF
:1032D00017041092190410921A040E941F0A0E94E7
:1032E0004E0A60E088E00E94140860E086E00E94D8
:1032F000140860E087E00E94140861E088E00E9402
:103300008E0761E086E00E948E0761E087E00E9400
:103310008E0760E087EF93E00E94FD0A8CE30E9435
:10332000D7070E944E0A64EF71E080E090E00E94AF
:10333000ED090E94B21681E080930B0480930C0487
:1033400010920404109203041092060410920504D3
:103350008DE293E00E945A16109204041092030426
:103360008AE090E0909306048093050483E393E061
:103370000E945A16109204041092030484E190E013
:10338000909306048093050481E693E00E945A1608
:10339000109204041092030483E290E090930604D8
:1033A0008093050488E393E00E945A160E944E0A17
:1033B00068E572E080E090E00E94ED0934E0432E81
:1033C000512C612C712C40E0242E40E0342EC1E0C1
:1033D000DDE054E0E52EF12C60E1862E912C88E0B2
:1033E0000E9465075C019093E5038093E40386E007
:1033F0000E9465078C019093E3038093E20387E0CA
:103400000E9465076C019093E1038093E0030E94A2
:10341000980AAB01BC018091B4039091B503A091CF
:10342000B603B091B7030A96A11DB11D8417950785
:10343000A607B70708F58091B2039091B303A816C9
:10344000B90681F0A114B10469F41092D30310926B
:10345000D2039091D0039111D4C18091CF038F5F9B
:103460008093CF030E94980A6093B4037093B503CE
:103470008093B6039093B703B092B303A092B203C4
:103480000E94980AAB01BC018091BA039091BB03E2
:10349000A091BC03B091BD030A96A11DB11D841774
:1034A0009507A607B70728F58091B8039091B9034F
:1034B00008171907F1F00115110589F41092D303CB
:1034C0001092D2038091CF03882309F4C1C1909157
:1034D000D0039111A7C1C093D0031092D1030E94D1
:1034E000980A6093BA037093BB038093BC039093D4
:1034F000BD031093B9030093B8030E94980AAB016F
:10350000BC018091C0039091C103A091C203B0910E
:10351000C3030A96A11DB11D84179507A607B70717
:10352000F0F48091BE039091BF03C816D906B9F09C
:10353000C114D10451F41092D3031092D20380919C
:10354000D003811194C11092CF030E94980A609316
:10355000C0037093C1038093C2039093C303D092BE
:10356000BF03C092BE030E94B2160E94980A6093E5
:10357000DC037093DD038093DE039093DF030091FF
:10358000C7031091C8032091C9033091CA030851A1
:103590001C4F2F4F3F4F061717072807390708F012
:1035A0009FC06093C7037093C8038093C90390932F
:1035B000CA038091CB038C3308F06DC18F5F809379
:1035C000CB038091CB038C3329F48091CC038F5FA4
:1035D0008093CC038091CC038B3310F01092CC03FA
:1035E0008091CC038C3329F48091CD038F5F80933D
:1035F000CD03A090C603B12CD12CC12C0E943B1F3F
:10360000A30192010E94931F6A157B058C059D05FD
:103610000CF444C18091C6038F5F8093C6038091F0
:10362000CE03843008F03DC18F5F8093CE0380913C
:10363000C503811110C08091C4038D3308F034C1DB
:103640008F5F8093C4038091C4038C33C9F4C0930B
:10365000C5031092C4038091C503813089F4809121
:10366000C4038D3308F023C18F5F8093C40380911E
:10367000C4038C33D1F422E02093C5031092C40319
:103680008091C503823089F48091C4038D3308F0A2
:1036900011C18F5F8093C4038091C4038C3301F503
:1036A00043E04093C5031092C4038091C503833067
:1036B000B8F09091C4039D3308F0FFC09F5F9093D2
:1036C000C4039091C4039C3329F48F5F8093C50396
:1036D0001092C4038091C5038D3010F0D093C503C0
:1036E0008091CF03833009F40EC108F0E9C0813026
:1036F00009F4F5C0823009F4FDC08091CF03873012
:1037000010F01092CF038091CF03811115C068E1B2
:10371000809101010E94F5108091D403813061F401
:1037200008E010E028E030E040E95BE068E270E0AB
:1037300082E490E00E94E30F0091D003002369F03F
:103740001091CF03133009F45CC208F0FDC01130B2
:1037500009F40FC1123009F4C0C12091DA0330918D
:10376000DB032F5F3F4F3093DB032093DA0380911D
:10377000D8039091D90301969093D9038093D803ED
:10378000223E34400CF489C220910301222309F423
:1037900084C22150209303011092DB031092DA03BC
:1037A000211102C0C093D703803496400CF078C238
:1037B00093C2E6E4FDE08491E8E2FDE09491E82F15
:1037C000F0E0EE0FFF1FEA58F44FA591B491EC9191
:1037D000E92321F461E08AE00E948E0761E08AE03B
:1037E0000E9414088CB580618CBD8CB580648CBD42
:1037F00061E08DE00E94140861E08BE00E941408F3
:1038000000CD8091D103811104C09F5F9093D003BC
:1038100029CE9091CF03943009F024CE8F5F80930E
:10382000D10320CE843009F0A5C2913079F4909173
:10383000D103992369F080910001863020F08250F5
:10384000809300014CCEC093D70349CE923079F3D8
:103850009DEF980F923018F0863009F040CE80919D
:10386000D003882309F43BCEC093D10338CE809196
:10387000D103811103C01092D00367CE8091CF0392
:10388000843019F41092D10360CE863009F05DCEF9
:103890001092D103F0CF1092CB0393CE1092C603B7
:1038A000BECE1092CE03C3CE1092C403CCCE1092E3
:1038B000C403DDCE1092C403EFCE1092C40301CF37
:1038C0008530C9F168F1863009F017CF06E110E0C4
:1038D00026E130E048E95BE06DE070E029C001E1FD
:1038E00010E028E130E04BEE5CE06FE070E08EE14C
:1038F00090E013C008E110E027E130E043EA5CE02B
:103900006DE070E0F4CF04E110E023E130E047E641
:103910005CE06FE070E080E290E00E94E30FEDCEAB
:1039200007E110E025E130E042E25CE06EE070E0AB
:103930008FE190E0F2CF08E110E028E130E04AEDBD
:103940005BE06CE070E0D3CF143009F467C117304E
:1039500008F003CF0E94B21684E190E09093040433
:1039600080930304909306048093050487E993E011
:1039700091C10E94B216033010F01093D0038091D1
:10398000D003813009F454C0823009F0E6CE1092A1
:10399000040410920304109206041092050482E6B7
:1039A00093E00E945A1610920404109203040DE052
:1039B00010E010930604009305048091CD030E944B
:1039C00067168AE090E090930404809303041093B8
:1039D00006040093050484E793E00E945A168FE0E2
:1039E00090E09093040480930304109306040093E2
:1039F00005048091CC030E9467168EE190E09093BD
:103A0000040480930304109306040093050484E7E0
:103A100093E00E945A1688E290E090930404809309
:103A2000030410930604009305048091CB0352C055
:103A3000F0920404E09203048CE090E0909306047A
:103A40008093050483E493E00E945A1610E080916D
:103A50000301181730F48BE493E00E945A161F5F9D
:103A6000F6CF143030F48DE493E00E945A161F5FB5
:103A7000F8CFF0920404E092030486E190E0909382
:103A80000604809305048FE493E00E945A1610E028
:103A900080910201181730F48BE493E00E945A16CB
:103AA0001F5FF6CF143030F48DE493E00E945A1675
:103AB0001F5FF8CFF0920404E092030480E290E0EC
:103AC000909306048093050489E593E00E945A16BA
:103AD000809100010E94671640CE0E94B21603300A
:103AE00010F0C093D0038091D103811116C0F092E1
:103AF0000404E09203048CE090E090930604809329
:103B0000050489E693E00E945A168091D003813023
:103B100009F443C0823009F45DC08091D103882349
:103B200009F41BCE8091D0038130E1F40E94E115AD
:103B30008091CE03843070F080910301853040F491
:103B4000909100019F5F909300018F5F809303012C
:103B50001092D10380910301853021F40E94B216A6
:103B60001092D1038091D003823009F0F6CD0E94EB
:103B7000E1158091CE03843008F4EFCD80910001EF
:103B80008E5F8093000180910201853018F48F5F71
:103B9000809302011092D103E0CD1092CE03F092F7
:103BA0000404E092030486E190E09093060480937D
:103BB000050486E793E00E945A1608E010E028E02A
:103BC00030E048E85BE06EE170E086E290E00E9461
:103BD000E30FA3CF1092CE03F0920404E09203040B
:103BE00086E190E090930604809305048BE793E0D0
:103BF0000E945A1608E010E028E030E040E85BE060
:103C0000E2CF0E94B2168091D403811191C0C0937B
:103C1000D7031092CF031092D0039FCD0E94B2160B
:103C20008091D103811199CD909204048092030474
:103C30008CE090E0909306048093050484E893E080
:103C40000E945A16909204048092030484E190E04A
:103C500090930604809305048BE893E00E945A1623
:103C60008091D003833010F0C093D0038091D003B3
:103C70008150990B23E0880F991F2A95E1F70C9644
:103C8000F0920404E09203049093060480930504E8
:103C900084E993E00E945A1660CD803496407CF00F
:103CA00080910201882359F0815080930201109283
:103CB000D9031092D803811102C0C093D703809119
:103CC000DA039091DB03823E944031F4809103014A
:103CD000811102C0C093D7038091D5039091D60380
:103CE0008C382AE092072CF401969093D6038093A7
:103CF000D5038091D5039091D6038438934011F475
:103D0000C093D4038091D2039091D3038C3291401D
:103D100031F41092D1031092D0031092CF030E947D
:103D20004E0A2114310409F45ACB0E94000057CBEB
:103D300068E1809101010E94F510F0920404E09284
:103D400003048CE090E090930604809305048CE9D2
:103D500093E00E945A160E944E0A68EE73E080E0DB
:103D600090E00E94ED091092D4031092D6031092B5
:103D7000D5034FCF823009F477CD6ACDE7EFF3E07A
:103D80001382128224E530E03583248380E390E0BF
:103D9000978386833187208793878287168A158643
:103DA00014861786168681E0858B848B2FEF3FEF74
:103DB000338B228B318B208B878B108E128E118E42
:103DC00085E093E0918380838BE0838F8DE0848F07
:103DD00080E1858F8EE0868F8FE0878F08958F92A8
:103DE0009F92AF92BF92CF92DF92EF92FF92CF93CA
:103DF000DF93EC01688179818A819B81611571056E
:103E00008105910521F464E279ED8BE597E02DE1E0
:103E100033EF41E050E00E94931F49015A019B019A
:103E2000AC01A7EAB1E40E94B21F6B017C01ACEEC9
:103E3000B4EFA50194010E94C01FC60ED71EE81E54
:103E4000F91EF7FE06C081E0C81AD108E10880E833
:103E5000F80AC882D982EA82FB82C701B6019F773D
:103E6000DF91CF91FF90EF90DF90CF90BF90AF9018
:103E70009F908F9008958F929F92AF92BF92CF9212
:103E8000DF92EF92FF926091FD027091FE028091AD
:103E9000FF0290910003611571058105910521F4E0
:103EA00064E279ED8BE597E02DE133EF41E050E0FE
:103EB0000E94931F49015A019B01AC01A7EAB1E49A
:103EC0000E94B21F6B017C01ACEEB4EFA50194011E
:103ED0000E94C01FC60ED71EE81EF91EF7FE06C0C0
:103EE00081E0C81AD108E10880E8F80AC092FD0212
:103EF000D092FE02E092FF02F0920003C701B601E9
:103F00009F77FF90EF90DF90CF90BF90AF909F9002
:103F10008F9008956093FD027093FE028093FF02DC
:103F2000909300030895052E97FB1EF400940E94C1
:103F3000AA1F57FD07D00E94C51F07FC03D04EF4EF
:103F40000C94AA1F50954095309521953F4F4F4FA7
:103F50005F4F089590958095709561957F4F8F4F35
:103F60009F4F08950E94E71FA59F900DB49F900D4D
:103F7000A49F800D911D11240895B7FF0C94B21FCA
:103F80000E94B21F821B930B0895A1E21A2EAA1B56
:103F9000BB1BFD010DC0AA1FBB1FEE1FFF1FA217F9
:103FA000B307E407F50720F0A21BB30BE40BF50BF6
:103FB000661F771F881F991F1A9469F7609570957F
:103FC000809590959B01AC01BD01CF010895A29F02
:103FD000B001B39FC001A39F700D811D1124911DDD
:103FE000B29F700D811D1124911D0895EE0FFF1FCA
:103FF0000590F491E02D099481E090E0F8940C9400
:064000000120F894FFCF3F
:10400600050F0302FF000000000000000000000092
:10401600000000000000000000000000000000009A
:104026000000000000000000000000C0E0F0F8FC06
:10403600FCFEFFFCE00000000000000000000000A5
:10404600000000000000000000000000000000006A
:10405600000000000000000000000000000000005A
:1040660000000000000000000000F8F8F8F8F8F87A
:10407600F8F8F8F8F8F8F0F0E0E0C080C0FCFFFFD0
:10408600FFFF7F3F7FFFFFFFFFFF000000000000F4
:10409600000000000000000000000000000000001A
:1040A600000000000000000000000000000000000A
:1040B6000000000000000000000000000000000FEB
:1040C6001F3F7FFFFFFFFFFFFFFFFFE7C7C7878F8A
:1040D6009F9FFFFFFFC1C0E0FCFFFFFFFFFFFCFC4F
:1040E600FCFCFEFEFEFCFCF8F8F0E0C0C0000000A0
:1040F60000000000000000000000000000000000BA
:1041060000000000000000000000000000000000A9
:1041160000000000000080C0E0F1FBFFFFFFFFFF92
:104126007F1F0F0F87E7FFFFFF1F1F3FF9F8F8F804
:10413600F8F8F8FDFFFFFFFFFFFFFFFFFF7F3F0FD0
:104146000701000000000000000000000000000061
:104156000000000000000000000000000000000059
:104166000000000000000000F0FEFFFFFFFFFFFF61
:10417600FFFFFFFFFE7E3F3F0F1FFFFFFFFCF0E04C
:10418600F1FFFFFFFFFFFCF0010101010101010149
:104196000000000000000000000000000000000019
:1041A6000000000000000000000000000000000009
:1041B60000000000000000000000000003030303ED
:1041C60003030303010101010000000000000003D6
:1041D6000F1F3F7F7FFFFFFFFF7F7F1F0300000052
:1041E60000000000000000000000000000000000C9
:1041F60000000000000000000000000000010000B8
:104206000000000000370D0F07F210F110A40AD4C9
:1042160006DC0FB40FD00FC40F4410D406FD0AFC01
:104226000A7B0F420FFD0EE00E680E090E56205057
:1042360045540056302E31004C6F6164696E672E0E
:104246002E2E0048756E6772793A002B002D0053AA
:104256007472656E6774683A005765696768743A80
:1042660020007469656D706F0053656C656374201A
:10427600666F6F643A00666F6F6400766974616D8D
:10428600696E6500636C617369630070656E647561
:104296006C756D002D3E0023232323004C696D7041
:0642A60069616E646F0007
:00000001FF
